:020000040800F2
:1000000000280020B90E0008390C00083B0C00083D
:100010003D0C00083F0C0008410C000800000000E7
:10002000000000000000000000000000430C000879
:10003000450C000800000000470C0008490C0008AF
:10004000010F0008010F0008010F0008010F000850
:10005000010F0008010F0008510C0008010F0008F3
:10006000010F0008010F0008010F00085D0C0008D7
:10007000010F0008010F0008010F0008010F000820
:10008000010F0008010F00086D0C0008010F0008A7
:10009000010F0008010F0008010F0008010F000800
:1000A000010F0008010F0008010F0008010F0008F0
:1000B000010F0008850C000800000000010F000877
:1000C000010F00080000000000000000010F000800
:1000D00000000000950C0008010F0008000000005F
:1000E000010F0008010F0008010F000800000000C8
:1000F0000000000000000000000000000000000000
:0C01000000000000000000005FF808F1A3
:10010C0010B5054C237833B9044B13B10448AFF345
:10011C0000800123237010BDE404002000000000C7
:10012C009033000808B5034B1BB103490348AFF3E8
:10013C00008008BD00000000E80400209033000897
:10014C0000B585B000230193029303931148124A22
:10015C0002608360037303754FF46022C2614360D5
:10016C000123036101F072FA68B90623019301239C
:10017C0002930023039301A9064801F067F828B9FC
:10018C0005B05DF804FB00F0DFFBEEE700F0DCFBF4
:10019C00F6E700BF000500200024014000B585B043
:1001AC0000230193029303931148124A0260836067
:1001BC00037303754FF46022C26143600123036132
:1001CC0001F044FA68B90723019301230293002339
:1001DC00039301A9064801F039F828B905B05DF878
:1001EC0004FB00F0B1FBEEE700F0AEFBF6E700BF5E
:1001FC00300500200028014010B588B0002304937E
:10020C000593069307930368354A934204D0354A05
:10021C00934241D008B010BD0446334B9A6942F466
:10022C0000729A619A6902F400720092009A9A69BB
:10023C0042F004029A619B6903F004030193019B51
:10024C00C02304930323059304A9284801F0D6FC8A
:10025C002748284B03600023436083608022C260E0
:10026C004FF4807202614FF48062426183614FF4FB
:10027C000053C36101F07CFB58B91D4B23625C62D7
:10028C0000220721122001F019FB122001F04EFB75
:10029C00C0E700F059FBF0E7134B9A6942F4806217
:1002AC009A619A6902F480620292029A9A6942F007
:1002BC0004029A619B6903F004030393039B80235C
:1002CC0004930323059304A9084801F097FC00222A
:1002DC000721122001F0F2FA122001F027FB99E716
:1002EC000024014000280140001002400008014099
:1002FC00600500200800024000B583B00A4B5A6923
:10030C0042F001025A615B6903F001030193019B06
:10031C00002211460B2001F0D1FA0B2001F006FB54
:10032C0003B05DF804FB00BF001002402DE9F04360
:10033C0089B000240494059406940794484B9A6958
:10034C0042F010029A619A6902F010020092009A2F
:10035C009A6942F020029A619A6902F02002019295
:10036C00019A9A6942F004029A619A6902F00402B5
:10037C000292029A9A6942F008029A619B6903F010
:10038C0008030393039BDFF8DC9022464FF40051E3
:10039C00484601F04AFD344E224640F60371304681
:1003AC0001F043FD314F22464FF47041384601F0C5
:1003BC003CFD4FF4005304930125059506954FF031
:1003CC000308CDF81C8004A9484601F017FC40F640
:1003DC0003230493059506940223079304A930463E
:1003EC0001F00CFC0495224B0593069504A93846A4
:1003FC0001F004FC4FF44053049305950694CDF89A
:10040C001C8004A9384601F0F9FB4FF440430493D7
:10041C0005950694079504A9384601F0EFFB4FF4B7
:10042C008073049305950694CDF81C8004A930467E
:10043C0001F0E4FB4FF48063049305950694079553
:10044C0004A9304601F0DAFB22460621084601F0E9
:10045C0035FA062001F06AFA09B0BDE8F08300BF56
:10046C00001002400010014000080140000C014047
:10047C0000002110012800D0704708B5142000F0AE
:10048C0085FD01210C4801F0C9FC18B10B4B012270
:10049C005A6108BD142000F079FD0121064801F0D5
:1004AC00BDFC0028F2D14FF4005100F1804000F562
:1004BC00883001F0C0FCE9E7000C01400004014069
:1004CC0038B50368174A934203D0174A934214D0A5
:1004DC0038BD164B01221A80154D284601F03AF909
:1004EC00144C204602F05AF9284600F025FE124B17
:1004FC001880204602F022F9EAE70C4B02221A80FF
:10050C000E4D284601F026F90A4C204602F046F919
:10051C00284600F011FE084B1880204602F00EF918
:10052C00D6E700BF0024014000280140A4050020AC
:10053C0000050020D8050020D4050020300500203F
:10054C0038B5044619B1012908D000251DE0002258
:10055C004FF48041164801F068FCF6E701224FF495
:10056C008041134801F061FCEFE700224FF4004199
:10057C000F4801F05AFC01224FF480710D4801F034
:10058C0054FC6400E4B20135EDB2072D0FD8002203
:10059C004FF48071074801F048FC14F0800FE4D050
:1005AC0001224FF40041024801F03FFCE3E738BD63
:1005BC00000C01400008014010B5264C01224FF4FC
:1005CC000071204601F031FC00224FF400612046FE
:1005DC0001F02BFC01224FF48061204601F025FC38
:1005EC0004F5806400224FF48051204601F01DFC7C
:1005FC00012000F0CBFC01224FF48051204601F089
:10060C0014FC01224FF40051204601F00EFC012095
:10061C0000F0BCFC00224FF40051204601F005FC18
:10062C0000212120FFF78CFF0021C820FFF788FF55
:10063C0000210620FFF784FF00211320FFF780FF25
:10064C0000212020FFF77CFF00210C20FFF778FF12
:10065C0010BD00BF0008014038B50D460D2800D96B
:10066C000D20052D00D9052500EB40004400E4B217
:10067C0000212020FFF764FF002144F08000FFF7E9
:10068C005FFF002145F04000FFF75AFF38BD10B561
:10069C0000212020FFF754FF00218020FFF750FF9E
:1006AC0000214020FFF74CFF002405E00121002031
:1006BC00FFF746FF0134A4B2B4F5FC7FF6D310BDAE
:1006CC00F0B5FFB006460F461546002100914FF4D9
:1006DC00FA7201A802F094FD45B3002411E0A1F1D7
:1006EC00200303EB4303124A02EB430313F80C30D1
:1006FC000DF804300CF1010C0134BCF1050FEEDDEA
:10070C000135297811B14FF0000CF6E700250DF8F2
:10071C00045039463046FFF79FFF05E001211DF8D4
:10072C000500FFF70DFF0135AC42F7DA7FB0F0BDE5
:10073C000C34000838B50546002409E0C4EBC402AB
:10074C0005EB420221460020FFF7BAFF0134E4B268
:10075C00052CF3D938BD000008B50268304B9A421D
:10076C0000D008BD2F4B1B681E2B15D8591C2D4AC9
:10077C0011602D4A12782D48C254312A17D02C4BB7
:10078C0000221A602A4B1B68032B15D00122264924
:10079C00284802F0F4FCE4E7224B00221A604FF6E2
:1007AC00FF7314222449234802F0D7FAEEE7204ABB
:1007BC00136801331360E5E78B1F1C4AD35C642B71
:1007CC0014D0632B1FD04FF6FF73164A12881749AB
:1007DC00184802F0C2FA174802F0B0FC2128FAD0EF
:1007EC000023134A13600F4A1360CFE74A1F0F48C8
:1007FC00825C732AE5D10A1F825C702AE1D10F4812
:10080C00FFF798FFDFE74B1F084AD35C6C2BDAD15C
:10081C000439535C722BD6D1FFF739FFD3E700BFF5
:10082C0000380140A8050020AC050020B0050020D0
:10083C00D005002020060020BC3300085400002006
:10084C0010B582B00024234801F0A8FF224B1A886F
:10085C00224B18881EE0224BA3FB02C1C90801EBF6
:10086C00810E4FEA4E0CA2EB0C02303204F1080C54
:10087C00EC440CF8042CA3FB0023DB0803EB830EE5
:10088C004FEA4E02821A30320CF8082C8AB298B217
:10089C000134E4B2032CDED900230EE003F108048A
:1008AC000DEB040111F8040C0E4A2244107711F8D8
:1008BC00081C82F82A100133DBB2032BEED909484D
:1008CC00FFF738FF084B00221A80024801F036FF70
:1008DC0002B010BDD8050020D4050020D60500209C
:1008EC00CDCCCCCC00000020A405002008B50268BB
:1008FC00094B9A4200D008BD084B1B8823B1012B31
:10090C0006D0FFF79DFFF6E7054800F0FBFDF2E788
:10091C00044800F0F7FDEEE700040040A4050020B9
:10092C00000500203005002010B5064C00220121E6
:10093C00204601F07AFA01220221204601F075FAD4
:10094C0010BD00BF0008014072B6FEE700B595B0BF
:10095C00282200210DEB020002F052FC002305932B
:10096C0006930793089309930193029303930493BB
:10097C0001220A924FF480330B930E9202221192B1
:10098C0012934FF4E01313930AA801F081FAC8B93B
:10099C000F23059302210691002307934FF48062E5
:1009AC000892099305A801F0B3FC68B902230193DE
:1009BC004FF40043039301A801F086FD30B915B044
:1009CC005DF804FBFFF7C0FFFFF7BEFFFFF7BCFFAE
:1009DC0030B589B000F0B6FAFFF7B8FFFFF7A6FC08
:1009EC00FFF78AFC00F0B2F9FFF7AAFB00F056F90A
:1009FC0000F0C6F9FFF7D2FB6E4800F0CBFE6E4854
:100A0C0000F0C8FEFFF790FF01226C496C4802F021
:100A1C00B6FB012000F0BAFAFFF7CEFD012000F082
:100A2C00B5FAFFF734FE674C224600210846FFF763
:100A3C0047FE224601210020FFF742FE624D2A4666
:100A4C0002210020FFF73CFE2A4603210020FFF77D
:100A5C0037FE224604210020FFF732FE22460521F4
:100A6C000020FFF72DFE594A05AB07CA03C323F834
:100A7C00022B120C1A70564B93E803000090ADF841
:100A8C000410090C8DF806100023CDF80730CDF8B2
:100A9C000B30CDF80F308DF813305EE0204600F0AF
:100AAC004BFB032215E04B4981FB0031C317C3EB11
:100ABC00A103194603EB8303A0EB430320336B44E0
:100ACC0013F80C0C02F120036B4403F8200C0846BD
:100ADC00013A002AE7DA404C4FF6FF7304223F49F3
:100AEC00204602F03AF94FF6FF731422694620466D
:100AFC0002F033F947E0374981FB0031C317C3EBF0
:100B0C00A103194603EB8303A0EB430320336B448F
:100B1C0013F80C0C02F120036B4403F8200C08466C
:100B2C00013A002AE7DA2C4C4FF6FF7304222C49C9
:100B3C00204602F012F94FF6FF7314226946204644
:100B4C0002F00BF94FF4FA7000F020FA4FF6FF7335
:100B5C0002222449204802F000F9164C204600F0ED
:100B6C005DFC3221204600F025FA134D284600F09A
:100B7C0055FC3221284600F01DFA204600F008FCF6
:100B8C0010F4007F8AD14FF4FA7000F0FFF94FF6A1
:100B9C00FF7302221349104802F0DFF8064800F0F8
:100BAC00F7FB10F4007FCDD0034800F0C5FA032208
:100BBC00B7E700BF0005002030050020AC05002081
:100BCC0020060020CC330008DC3300080034000879
:100BDC00A83300086766666664060020EC330008DC
:100BEC00F8330008F433000882B00E4B9A6942F0D7
:100BFC0001029A619A6902F001020092009ADA6984
:100C0C0042F08052DA61DB6903F080530193019B5F
:100C1C00054A536823F0E06343F00073536002B05D
:100C2C00704700BF0010024000000140FEE7FEE7E5
:100C3C00FEE7FEE7FEE770477047704708B500F027
:100C4C0093F908BD08B5012001F0FEF808BD0000BD
:100C5C0008B5024800F030FF08BD00BF6005002059
:100C6C0008B5034800F06CFA024800F069FA08BDB8
:100C7C00000500203005002008B5024801F0ABFD4E
:100C8C0008BD00BFD805002008B5024802F054F991
:100C9C0008BD00BF200600207047000000B587B0DB
:100CAC000023029303930493059300930193154837
:100CBC00154A02604722426083604FF47A72C26028
:100CCC0003618023836101F075FE90B94FF480536A
:100CDC00029302A90B4801F0A5FE68B9002300930A
:100CEC0001936946074801F00BFF40B907B05DF866
:100CFC0004FBFFF729FEE9E7FFF726FEEEE7FFF717
:100D0C0023FEF3E7D80500200004004002680E4BD8
:100D1C009A4200D0704700B583B003F50333DA690B
:100D2C0042F00202DA61DB6903F002030193019BDA
:100D3C00002206211D2000F0C1FD1D2000F0F6FD53
:100D4C0003B05DF804FB00BF0004004008B50A487E
:100D5C000A4B03604FF41653436000238360C36057
:100D6C0003610C2242618361C36101F0C7FF00B9CA
:100D7C0008BDFFF7E9FDFBE7200600200038014025
:100D8C0008B50A480A4B03604FF41653436000231E
:100D9C008360C36003610C2242618361C36101F013
:100DAC00ADFF00B908BDFFF7CFFDFBE764060020DF
:100DBC000044004070B588B000230493059306935B
:100DCC0007930368334A934204D0334A934238D092
:100DDC0008B070BD314B9A6942F480429A619A69AD
:100DEC0002F480420092009A9A6942F008029A61D9
:100DFC009B6903F008030193019B40230493022396
:100E0C00059303250795264E04A9304600F0F6FEFF
:100E1C008023049300240594069404A9304600F022
:100E2C00EDFE204A536843F0E06343F00403536043
:100E3C0022462946252000F041FD252000F076FDB4
:100E4C00C6E7164BDA6942F40032DA61DA6902F469
:100E5C0000320292029A9A6942F004029A619B69EA
:100E6C0003F004030393039B0423049302230593CD
:100E7C00032307930C4C04A9204600F0BFFE082363
:100E8C00049300230593069304A9204600F0B6FEB4
:100E9C009EE700BF003801400044004000100240B3
:100EAC00000C014000000140000801400C480D49B5
:100EBC000D4A002302E0D458C4500433C4188C42A9
:100ECC00F9D30A4A0A4C002301E013600432A2420F
:100EDC00FBD3FFF7E1FE02F06FF9FFF779FD7047E6
:100EEC0000000020E404002070360008E404002018
:100EFC00B0060020FEE7000010B504460E4B187833
:100F0C004FF47A73B3FBF0F30C4A1068B0FBF3F0B8
:100F1C0000F01AFD68B90F2C01D901200AE000225B
:100F2C0021464FF0FF3000F0C9FC054B1C6000203F
:100F3C0000E0012010BD00BFAC000020A800002084
:100F4C00B000002008B5074A136843F01003136083
:100F5C00032000F0A1FC0F20FFF7CEFFFFF744FEAB
:100F6C00002008BD00200240034A1168034B1B7887
:100F7C000B441360704700BFA8060020AC00002093
:100F8C00014B1868704700BFA806002038B504460E
:100F9C00FFF7F6FF0546B4F1FF3F02D0044B1B7878
:100FAC001C44FFF7EDFF401BA042FAD338BD00BF35
:100FBC00AC000020F0B583B005460C46002301932D
:100FCC00FFF7DEFF2B689A6812F4807F23D1074667
:100FDC005A6812F4807F03D1DB6A13F4700F29D0A6
:100FEC00504B1E68022001F0FBFAB6FBF0F62B68A2
:100FFC0019694D4A114236D1D96802F15C4211424D
:10100C0031D11969494A114240D1DA68484B1A4228
:10101C003ED0292041E0AB6A43F02003AB620023B1
:10102C0085F82430012003B0F0BD2B681B6813F049
:10103C00020F0FD02B681B6813F0020F4FD1B4F1C5
:10104C00FF3FF7D0002CF0D0FFF79AFFC31BA34251
:10105C00F0D9EAE7AB6A43F00403AB62002385F8EE
:10106C0024300320DFE71969304A114204D1D968D2
:10107C0002F16E4211420DD019692E4A0A405AB93A
:10108C00DA682C4B13405BB1FC2006E0292004E00D
:10109C00142002E0542000E0FC2000FB06F607E0E0
:1010AC005420FAE7019BB34210D3019B0133019307
:1010BC00019BB34213D2B4F1FF3FF6D0002CF1D018
:1010CC00FFF75EFFC01BA042EFD9EBE7AB6A43F022
:1010DC000403AB62002385F824300320A3E72B68BC
:1010EC006FF012021A60AB6A43F40073AB622B68A8
:1010FC009B6803F46023B3F5602F01D0002092E7C6
:10110C00287B60B9AB6A23F48073AB62AB6A13F4CF
:10111C00805F88D1AB6A43F00103AB6283E70020A8
:10112C0081E700BFA8000020244992249224491290
:10113C0092244900499224000368D86C7047704788
:10114C0010B5044603685A6812F0200F18D01A68BC
:10115C0012F0020F14D0826A12F0100F03D1826ABF
:10116C0042F4007282629A6802F46022B2F5602F37
:10117C0038D02046FFF7A4F923686FF012021A60EA
:10118C0023685A6812F0800F22D01A6812F0040FEC
:10119C001ED0A26A12F0100F03D1A26A42F40052C0
:1011AC00A2629A6802F4E042B2F5E04F31D05A687C
:1011BC0012F4806F05D19A6802F46022B2F5602FA8
:1011CC0024D0204600F066FB23686FF00C021A60F6
:1011DC0023685A6812F0400F03D01B6813F0010FFC
:1011EC0028D110BD227B002AC3D15A6822F02002DC
:1011FC005A60A36A23F48073A362A36A13F4805F1A
:10120C00B7D1A36A43F00103A362B2E7227B002AA1
:10121C00D7D15A6822F080025A60A36A23F4805313
:10122C00A362A36A13F4807FCBD1A36A43F00103BA
:10123C00A362C6E7A36A43F48033A3622046FFF798
:10124C007EFF23686FF001021A60CAE730B482B0E7
:10125C000022019290F82420012A00F0918003468C
:10126C00012280F824204A68062A2DD80468606B75
:10127C0002EB8202053A4FF01F0C0CFA02FC20EA3A
:10128C000C000D6805FA02F2024362630A68092A2F
:10129C003AD91C68E06802EB42021E3A4FF0070C88
:1012AC000CFA02FC20EA0C008D6805FA02F20243EB
:1012BC00E2600A68103A012A36D90020002283F82D
:1012CC00242002B030BC70470C2A0ED80568286B5D
:1012DC0002EB8202233A1F24944020EA04000C689B
:1012EC0004FA02F202432A63D0E70568E86A02EBCB
:1012FC008202413A1F24944020EA04000C6804FA4C
:10130C0002F20243EA62C1E71C68206902EB420266
:10131C004FF0070C0CFA02FC20EA0C008D6805FA61
:10132C0002F202432261C4E71A681648824205D0D1
:10133C009A6A42F020029A620120BFE7906810F48A
:10134C00000F1BD1906840F4000090600A68102ACE
:10135C0001D00020B2E70C4A12680C49A1FB021222
:10136C00920C02EB82025200019202E0019A013AC5
:10137C000192019A002AF9D100209FE700209DE7F5
:10138C0002209EE700240140A800002083DE1B43BE
:10139C00806A704730B583B00023019303689A6864
:1013AC0012F0010F33D104469A6842F001029A60A0
:1013BC00184B1B68184AA2FB03239B0C019302E0F9
:1013CC00019B013B0193019B002BF9D1FFF7D8FD49
:1013DC00054623689B6813F0010F16D1FFF7D0FD6B
:1013EC00431B022BF5D923689B6813F0010FF0D136
:1013FC00A36A43F01003A362E36A43F00103E362C0
:10140C00002384F82430012002E0002000E00020BA
:10141C0003B030BDA800002083DE1B4390F82430BD
:10142C00012B68D010B50446012380F82430FFF757
:10143C00B1FF00285BD1A36A23F4407323F00103AE
:10144C0043F48073A36223682C4A934227D0A26A88
:10145C0022F48012A2625A6812F4806F05D0A26A3C
:10146C0022F4405242F48052A262A26A12F4805FCB
:10147C002BD0E26A22F00602E262002284F82420D9
:10148C006FF002021A6023689A6802F46022B2F5C7
:10149C00602F1DD09A6842F480129A602AE0A2F55F
:1014AC008062526812F4702FD1D0A26A42F480127A
:1014BC00A262134A526812F4806FD6D0A26A22F448
:1014CC00405242F48052A262CFE70022E262D4E79B
:1014DC000A4A934204D09A6842F4A0029A6009E046
:1014EC00A2F58062526812F4702FD3D1F3E7002377
:1014FC0084F8243010BD0220704700BF0028014042
:10150C000024014090F82430012B6DD010B5044616
:10151C00012380F82430FFF73DFF002860D1A36A37
:10152C0023F4706323F0010343F48073A3622368F4
:10153C002E4A93422CD0A26A22F48012A2625A68DC
:10154C0012F4806F05D0A26A22F4405242F4805209
:10155C00A262A26A12F4805F30D0E26A22F0060224
:10156C00E262002284F824206FF002021A602268E2
:10157C00536843F02003536023689A6802F4602296
:10158C00B2F5602F1DD09A6842F480129A602AE05E
:10159C00A2F58062526812F4702FCCD0A26A42F489
:1015AC008012A262124A526812F4806FD1D0A26AE1
:1015BC0022F4405242F48052A262CAE70022E26254
:1015CC00CFE70A4A934204D09A6842F4A0029A6088
:1015DC0009E0A2F58062526812F4702FD3D1F3E7C0
:1015EC00002384F8243010BD0220704700280140ED
:1015FC000024014038B503689A6812F0010F01D13C
:10160C00002038BD04469A6822F001029A60FFF768
:10161C00B7FC054623689B6813F0010F13D0FFF746
:10162C00AFFC431B022BF5D923689B6813F0010F09
:10163C00F0D0A36A43F01003A362E36A43F0010302
:10164C00E3620120DDE70020DBE7000000287BD00F
:10165C0070B50446836A002B4DD02046FFF7CAFFB5
:10166C00A36A13F0100369D1002867D1A26A22F48F
:10167C00885222F0020242F00202A2626268E16920
:10168C000A43217B42EA4102A568B5F5807F02D06E
:10169C00012D36D01D46267D012E35D02668716869
:1016AC0021F46941294371602568AE6827493140AE
:1016BC001143A960A168B1F5807F01D0012902D145
:1016CC002369013B1B052568E96A21F470010B4372
:1016DC00EB62236899681E4B0B409A4225D0A36A93
:1016EC0023F0120343F01003A362E36A43F00103F7
:1016FC00E362012027E0C36280F82430FEF77CFD12
:10170C00ABE74FF48075C6E731B9A169013945EAF9
:10171C00413141F40065C1E7A16A41F02001A162A9
:10172C00E16A41F00101E162B8E70023E362A36AD8
:10173C0023F0030343F00103A36204E0A36A43F024
:10174C001003A362012070BD01207047FDF7E1FF7B
:10175C00FE0E1FFF90F82430012B18D010B5044654
:10176C00012380F82430FFF745FF60B922685368E5
:10177C0023F020035360A36A23F4885323F001035E
:10178C0043F00103A362002384F8243010BD02202F
:10179C007047000070B582B00023019390F824309C
:1017AC00012B72D00446012380F82430FFF722FF6E
:1017BC00054628B1002384F82430284602B070BDB9
:1017CC00A36A23F4885323F0020343F00203A362B9
:1017DC002F4B1E68022000F003FFB6FBF0F67600DC
:1017EC00019602E0019B013B0193019B002BF9D177
:1017FC002046FFF7CFFD2268936843F008039360FF
:10180C00FFF7BEFB064623689A6812F0080F14D047
:10181C00FFF7B6FB801B0A28F5D923689B6813F0E9
:10182C00080FF0D0A36A23F0120343F01003A36255
:10183C00002384F824300125BFE79A6842F00402A3
:10184C009A60FFF79DFB064623689B6813F0040F14
:10185C0014D0FFF795FB801B0A28F5D923689B68E9
:10186C0013F0040FF0D0A36A23F0120343F010031B
:10187C00A362002384F8243001259EE7A36A23F099
:10188C00030343F00103A36294E7022595E700BF2D
:10189C00A800002070470000074AD36823F4E063D7
:1018AC001B041B0C000200F4E060034343F0BF6315
:1018BC0043F40033D360704700ED00E000B5194BE2
:1018CC00DB68C3F30223C3F1070CBCF1040F28BF80
:1018DC004FF0040C03F1040EBEF1060F18D9033BB4
:1018EC004FF0FF3E0EFA0CFC21EA0C0199400EFA67
:1018FC0003F322EA0303194300280BDB0901C9B2E5
:10190C0000F1604000F5614080F800135DF804FBC5
:10191C000023E5E700F00F000901C9B2024B19548E
:10192C00F4E700BF00ED00E014ED00E0002807DB59
:10193C0000F01F02400901239340024A42F8203074
:10194C00704700BF00E100E00138B0F1807F0BD29E
:10195C004FF0E0235861054AF02182F82310002053
:10196C00986107221A6170470120704700ED00E072
:10197C0060B310B402460168154B0B441548A0FB2C
:10198C0003031B099B001364134BD363022382F8DC
:10199C002130086820F47F5020F0300053689468A0
:1019AC002343D46823431469234354692343946920
:1019BC002343D469234303430B600020906301232A
:1019CC0082F8213082F8200010BC7047012070474B
:1019DC00F8FFFDBFCDCCCCCC0000024090F82130FC
:1019EC00022B06D004238363002380F820300120CF
:1019FC0070470268136823F00E03136002681368C3
:101A0C0023F001031360036CC16B012202FA03F390
:101A1C004B6080F82120002380F820301846704756
:101A2C0008B590F82130022B03D0042383630120E6
:101A3C0008BD0268136823F00E0313600268136874
:101A4C0023F0010313600368194A934214D0143233
:101A5C0093421FD0143293421ED0143293421ED0A4
:101A6C00143293421ED01432934202D04FF0807243
:101A7C0003E04FF4801200E001220E4B5A60012368
:101A8C0080F82130002380F82030436B6BB19847ED
:101A9C000020CDE71022F0E74FF48072EDE74FF411
:101AAC008052EAE74FF48032E7E70020C0E700BF3E
:101ABC00080002400000024038B5C36B1A68046885
:101ACC002568016C04238B40134235D015F0040FAC
:101ADC0032D0236813F0200F03D1236823F00403C2
:101AEC0023600368434A934214D01432934218D0B3
:101AFC001432934217D01432934217D014329342BB
:101B0C0017D01432934202D04FF0806203E04FF4AE
:101B1C00800200E00422384B5A60C36A03B1984734
:101B2C0038BD4022F7E74FF48062F4E74FF480426F
:101B3C00F1E74FF48022EEE702238B4013423CD0B6
:101B4C0015F0020F39D0236813F0200F06D123684B
:101B5C0023F00A032360012380F821300368254A0F
:101B6C00934214D0143293421CD0143293421BD0A3
:101B7C00143293421BD0143293421BD01432934232
:101B8C0002D04FF0007203E04FF4001200E002228A
:101B9C00194B5A60002380F82030836A002BBFD089
:101BAC009847BDE72022F3E74FF40072F0E74FF4BB
:101BBC000052EDE74FF40032EAE7082303FA01F193
:101BCC001142ADD015F0080FAAD0236823F00E03F4
:101BDC002360026CC16B012303FA02F24A60836337
:101BEC0080F82130002380F82030036B002B97D035
:101BFC00984795E7080002400000024070B582B09B
:101C0C000024A4468BE07F4DAA4210D007D97E4D0C
:101C1C00AA420CD005F58035AA4208D015E0A5F5EE
:101C2C008015AA4203D005F57025AA4209D18A680D
:101C3C00002A00F0BF80012A00F0B780436108241D
:101C4C0003E0A5F58015AA42F1D0BEF1FF0F00F21A
:101C5C00B3800646BEF1FF0F00F2B0804FEA8C0253
:101C6C0033680F25954023EA050304FA02F2134367
:101C7C0033604B6813F0805F4FD0644B9A6942F02D
:101C8C0001029A619B6903F001030193019B4FEAE6
:101C9C009C02951C5E4B53F825600CF003039D00D1
:101CAC000F23AB4026EA03065A4B984200F08C8077
:101CBC0003F58063984200F0898003F580639842B5
:101CCC0000F080800323AB4033430232504D45F883
:101CDC0022304B6813F4803F7AD04F4A136843EAA2
:101CEC000E0313604B6813F4003F77D04A4A5368D5
:101CFC0043EA0E0353604B6813F4801F74D0464ABA
:101D0C00936843EA0E0393604B6813F4001F71D081
:101D1C00414AD36843EA0E03D3600CF1010C0A6804
:101D2C0032FA0CF36CD0012303FA0CF302EA030E23
:101D3C0033EA0202F1D14A68122A3FF664AF122A42
:101D4C0083D801A555F822F03B1C0008A11D000802
:101D5C00AB1D0008BD1D0008571C0008571C0008CF
:101D6C00571C0008571C0008571C0008571C00087B
:101D7C00571C0008571C0008571C0008571C00086B
:101D8C00571C0008571C0008571C0008A51D00080C
:101D9C00B11D0008CC6858E7CC68043455E7CC6812
:101DAC00083452E7CC680C344FE7036108244CE745
:101DBC0000244AE7042448E7061D4BE7ACF108026F
:101DCC0092004DE702237EE700237CE701237AE7AC
:101DDC00114A136823EA0E03136083E70E4A536813
:101DEC0023EA0E03536086E70B4A936823EA0E033B
:101DFC00936089E7084AD36823EA0E03D3608CE723
:101E0C0002B070BD00002210000031100010024022
:101E1C0000000140000801400004014083681942A1
:101E2C0001D001207047002070470AB10161704752
:101E3C00090401617047C36801EA030221EA030146
:101E4C0041EA02410161704708B5054B5B690342E9
:101E5C0000D108BD024B5861FEF70CFBF9E700BF3F
:101E6C000004014082B0084B1B68084AA2FB032304
:101E7C005B0A00FB03F3019300BF019B5A1E019206
:101E8C00002BF9D102B07047A8000020D34D62108E
:101E9C00002800F0F18170B582B00446036813F09D
:101EAC00010F2CD0994B5B6803F00C03042B1DD055
:101EBC00964B5B6803F00C03082B12D06368B3F5E8
:101ECC00803F41D0002B55D103F1804303F50433FF
:101EDC001A6822F480321A601A6822F480221A607E
:101EEC0037E08A4B5B6813F4803FE7D0874B1B6865
:101EFC0013F4003F03D06368002B00F0BF8123680C
:101F0C0013F0020F75D0814B5B6813F00C0F5FD090
:101F1C007E4B5B6803F00C03082B54D02369002B19
:101F2C0000F08A807A4B01221A60FFF729F80546E7
:101F3C00764B1B6813F0020F75D1FFF721F8401B8D
:101F4C000228F5D903209EE1704A136843F48033CC
:101F5C001360636843B3FFF713F805466B4B1B68BC
:101F6C0013F4003FCBD1FFF70BF8401B6428F5D9D5
:101F7C00032088E1B3F5A02F09D0644B1A6822F432
:101F8C0080321A601A6822F480221A60E1E703F1A9
:101F9C008043A3F53C331A6842F480221A601A6815
:101FAC0042F480321A60D4E7FEF7EAFF0546574B3D
:101FBC001B6813F4003FA2D0FEF7E2FF401B64281D
:101FCC00F5D903205FE1514B5B6813F4803FA5D139
:101FDC004E4B1B6813F0020F03D02369012B40F00A
:101FEC004F814A4A136823F0F803616943EAC1033D
:101FFC001360236813F0080F33D0A369002B5CD057
:10200C00434B0122C3F88024FEF7BAFF05463F4B31
:10201C005B6A13F0020F21D1FEF7B2FF401B0228BE
:10202C00F5D903202FE1394A136823F0F8036169CD
:10203C0043EAC1031360DCE7354B00221A60FEF75C
:10204C009FFF0546314B1B6813F0020FD1D0FEF7F2
:10205C0097FF401B0228F5D9032014E10120FFF75C
:10206C0001FF236813F0040F00F09680274BDB6907
:10207C0013F0805F34D1254BDA6942F08052DA617B
:10208C00DB6903F080530193019B0125214B1B68F5
:10209C0013F4807F26D0E368012B3DD0002B53D165
:1020AC0003F1804303F504331A6A22F001021A6229
:1020BC001A6A22F004021A6233E0154B0022C3F8AC
:1020CC008024FEF75DFF0546104B5B6A13F0020F90
:1020DC00C7D0FEF755FF401B0228F5D90320D2E0EC
:1020EC000025D3E70B4A136843F480731360FEF7A3
:1020FC0047FF0646074B1B6813F4807FCBD1FEF7D6
:10210C003FFF801B6428F5D90320BCE0001002407F
:10211C0000004242007000405F4A136A43F0010322
:10212C001362E36833B3FEF72BFF06465A4B1B6A68
:10213C0013F0020F2FD1FEF723FF801B41F28833DF
:10214C009842F3D903209EE0052B09D0524B1A6A12
:10215C0022F001021A621A6A22F004021A62E0E703
:10216C004D4B1A6A42F004021A621A6A42F00102DA
:10217C001A62D6E7FEF704FF0646474B1B6A13F0BC
:10218C00020F08D0FEF7FCFE801B41F28833984208
:10219C00F3D9032077E0E5B9E369002B72D03E4A0E
:1021AC00526802F00C02082A56D0022B17D03B4B77
:1021BC0000221A66FEF7E4FE0446374B1B6813F048
:1021CC00007F47D0FEF7DCFE001B0228F5D9032068
:1021DC0059E0314AD36923F08053D361DCE72F4BAC
:1021EC0000221A66FEF7CCFE05462B4B1B6813F03B
:1021FC00007F06D0FEF7C4FE401B0228F5D9032051
:10220C0041E0236AB3F5803F1AD023494B6823F48D
:10221C007413226A606A024313434B601F4B012202
:10222C001A66FEF7ADFE04461B4B1B6813F0007FCD
:10223C000ED1FEF7A5FE001B0228F5D9032022E0E3
:10224C00154A536823F40033A1680B435360DCE751
:10225C00002018E0002016E0012B16D00E4B5B6816
:10226C0003F48031226A914211D103F47013626A33
:10227C0093420ED1002006E001207047012002E0BD
:10228C00012000E0002002B070BD0120FBE701201E
:10229C00F9E70120F7E700BF0010024000004242BE
:1022AC0086B0174B0FCB0DF1180C0CE90F0040F258
:1022BC000123ADF80430134B5B6803F00C02082AC1
:1022CC0002D0114806B07047C3F3834218326A44F7
:1022DC0012F8100C13F4803F0DD00A4B5B68C3F35B
:1022EC00404318336B4413F8143C074A02FB00F0CC
:1022FC00B0FBF3F0E6E7054B03FB00F0E2E700BFB1
:10230C004C3600080010024000127A0000093D0013
:10231C00002800F0A08070B50D460446524B1B6897
:10232C0003F007038B420BD24F4A136823F00703C9
:10233C000B431360136803F007038B4240F08D804E
:10234C00236813F0020F17D013F0040F04D0474A80
:10235C00536843F4E0635360236813F0080F04D010
:10236C00424A536843F460535360404A536823F025
:10237C00F003A1680B435360236813F0010F31D0B5
:10238C006368012B20D0022B25D0384A126812F03A
:10239C00020F64D035494A6822F0030213434B60A4
:1023AC00FEF7EEFD0646314B5B6803F00C036268EA
:1023BC00B3EB820F16D0FEF7E3FD801B41F288339E
:1023CC009842F0D9032045E0284A126812F4003FE5
:1023DC00E0D101203EE0254A126812F0007FD9D1ED
:1023EC00012037E0204B1B6803F00703AB420AD9EE
:1023FC001D4A136823F007032B431360136803F083
:10240C000703AB422DD1236813F0040F06D0174AF3
:10241C00536823F4E063E1680B435360236813F0C3
:10242C00080F07D0114A536823F46053216943EA1B
:10243C00C1035360FFF734FF0C4B5B68C3F303130A
:10244C000B4AD35CD8400B4B18600B4B1868FEF74B
:10245C0053FD002070BD012070470120FAE70120D8
:10246C00F8E70120F6E700BF002002400010024010
:10247C0034360008A8000020B0000020014B18687A
:10248C00704700BFA800002008B5FFF7F7FF044B0A
:10249C005B68C3F30223034AD35CD84008BD00BF7A
:1024AC00001002404436000808B5FFF7E7FF044B64
:1024BC005B68C3F3C223034AD35CD84008BD00BF9A
:1024CC00001002404436000870B582B00446036820
:1024DC0013F0010F36D03F4BDB6913F0805F49D10D
:1024EC003C4BDA6942F08052DA61DB6903F08053CD
:1024FC000193019B0125384B1B6813F4807F3BD063
:10250C00344B1B6A13F4407313D0626802F44072AC
:10251C009A420ED02F4A136A23F440702F49012699
:10252C00C1F840640026C1F84064106213F0010F3A
:10253C0036D1284A136A23F4407361680B43136243
:10254C00002D3ED1236813F0020F06D0214A5368A8
:10255C0023F44043A1680B435360236813F0100F1E
:10256C0034D01C4A536823F48003E1680B43536056
:10257C0000202CE00025BEE7174A136843F4807353
:10258C001360FEF7FDFC0646134B1B6813F4807FAB
:10259C00B6D1FEF7F5FC801B6428F5D9032016E0B4
:1025AC00FEF7EEFC06460B4B1B6A13F0020FC0D174
:1025BC00FEF7E6FC801B41F288339842F3D90320E6
:1025CC0005E0D36923F08053D361BBE7002002B050
:1025DC0070BD00BF0010024000700040000042427D
:1025EC0000B587B08446394B0FCB0DF1180E0EE9B0
:1025FC000F0040F20123ADF80430BCF1020F56D0AD
:10260C00BCF1100F06D0BCF1010F2ED0002007B08A
:10261C005DF804FB2E4B5A68186810F08070F6D0E9
:10262C00C2F3834318336B4413F8100C12F4803F3D
:10263C0017D0274B5B68C3F3404318336B4413F834
:10264C00142C244BB3FBF2F303FB00F0204B5B6820
:10265C0013F4800FDBD140001F4BA3FB003040086C
:10266C00D5E71E4B03FB00F0F0E7194B1B6A40F259
:10267C0002321A40B2F5817F24D003F44073B3F5D3
:10268C00007F04D0B3F5407F09D00020BFE7104A8B
:10269C00526A12F0020FF5D049F64040B7E70C4BE6
:1026AC00186810F40030B2D04FF22440AFE7FFF7B7
:1026BC00FBFE074B5B68C3F3813301335B00B0FB5C
:1026CC00F3F0A4E74FF40040A1E700BF4C3600083C
:1026DC000010024000127A00ABAAAAAA00093D0021
:1026EC0010B4036A046A24F001040462846924F0BF
:1026FC00F00C4CEA021223F00A030B4382610362D2
:10270C0010BC704710B4046A24F01004046284698D
:10271C00036A24F4704C4CEA023223F0A00343EA1F
:10272C0001138261036210BC7047836823F070034D
:10273C000B4343F0070383607047000090F83D3073
:10274C00DBB2012B23D1022380F83D300268D36821
:10275C0043F00103D36003680F4A93420CD0B3F1EA
:10276C00804F09D0A2F59432934205D01A6842F0FA
:10277C0001021A60002070479A6802F00702062ACC
:10278C0007D01A6842F001021A600020704701203D
:10279C0070470020704700BF002C01400268D368CE
:1027AC0023F00103D3600368196A41F2111211423C
:1027BC0008D1196A40F24442114203D11A6822F03E
:1027CC0001021A60012380F83D30002070477047E9
:1027DC0070477047704710B5044603681A6912F0C9
:1027EC00020F11D0DA6812F0020F0DD06FF0020256
:1027FC001A610123037703689B6913F0030F70D0F0
:10280C00FFF7E6FF0023237723681A6912F0040F01
:10281C0012D0DA6812F0040F0ED06FF004021A61B5
:10282C000223237723689B6913F4407F5FD02046F3
:10283C00FFF7CEFF0023237723681A6912F0080FE5
:10284C0012D0DA6812F0080F0ED06FF008021A617D
:10285C00042323772368DB6913F0030F4ED0204643
:10286C00FFF7B6FF0023237723681A6912F0100FC5
:10287C0012D0DA6812F0100F0ED06FF010021A613D
:10288C00082323772368DB6913F4407F3DD020466F
:10289C00FFF79EFF0023237723681A6912F0010FBC
:1028AC0003D0DA6812F0010F36D123681A6912F0DE
:1028BC00800F03D0DA6812F0800F34D123681A69C4
:1028CC0012F0400F03D0DA6812F0400F32D12368B7
:1028DC001A6912F0200F03D0DA6812F0200F30D1F1
:1028EC0010BDFFF774FF2046FFF773FF8AE7204601
:1028FC00FFF76DFF2046FFF76CFF9BE72046FFF7C5
:10290C0066FF2046FFF765FFACE72046FFF75FFF49
:10291C002046FFF75EFFBDE76FF001021A6120460B
:10292C00FDF7E4FFC1E76FF080021A61204600F06A
:10293C001AF9C3E76FF040021A612046FFF74AFF0D
:10294C00C5E76FF020021A61204600F00BF9C7E7CB
:10295C000368174A904206D0B0F1804F03D0A2F51D
:10296C009432904203D123F070034A681343104A07
:10297C00904206D0B0F1804F03D0A2F59432904231
:10298C0003D123F44073CA68134323F080034A69CC
:10299C00134303608B68C3620B688362044B9842D9
:1029AC0002D00123436170470B690363F9E700BF51
:1029BC00002C014040B310B5044690F83D30F3B103
:1029CC00022384F83D30214651F8040BFFF7C0FF79
:1029DC00012384F8463084F83E3084F83F3084F884
:1029EC00403084F8413084F8423084F8433084F825
:1029FC00443084F8453084F83D30002010BD80F818
:102A0C003C30FEF783F9DBE70120704710B4846893
:102A1C0024F47F4C42EA03220A4342EA0C0282600D
:102A2C0010BC704790F83C30012B66D010B50446B2
:102A3C00012380F83C30022380F83D300268936813
:102A4C0023F47F4323F0770393600B68602B40D013
:102A5C0022D8402B47D00BD9502B0ED1CA684968CD
:102A6C000068FFF73DFE50212068FFF75EFE04E092
:102A7C00202B0CD008D9302B09D0012384F83D3001
:102A8C00002084F83C0010BD0BB1102BF5D1194679
:102A9C002068FFF74AFEF0E7702B0ED0B3F5005F0D
:102AAC00EBD1CB684A6889680068FFF7AFFF2268F2
:102ABC00936843F480439360DFE7CB684A68896886
:102ACC000068FFF7A3FF2268936843F077039360D5
:102ADC00D3E7CA6849680068FFF714FE60212068D4
:102AEC00FFF723FEC9E7CA6849680068FFF7F8FDDD
:102AFC0040212068FFF719FEBFE702207047000055
:102B0C0090F83C30012B28D010B4012380F83C30D5
:102B1C00022380F83D3003685A689C6822F0700CE0
:102B2C000A6842EA0C025A6003680D4A934206D0C6
:102B3C00B3F1804F03D0A2F59432934204D124F028
:102B4C0080044A6814439C60012380F83D300023C4
:102B5C0080F83C30184610BC70470220704700BF0C
:102B6C00002C0140704770470268D36823F49073BF
:102B7C00D3600268536923F001035361036B012B8B
:102B8C0005D0202380F83E30002303637047026891
:102B9C00D36823F01003D360F3E790F83D30DBB239
:102BAC00212B01D0022070478368B3F5805F17D0CA
:102BBC00036A5A1C02621A7803685A60C38C9BB26F
:102BCC00013B9BB2C3844BB90268D36823F08003EA
:102BDC00D3600268D36843F04003D3600020704791
:102BEC000369002BE4D1036A1B880268C3F3080352
:102BFC005360036A02330362E0E7000010B5044639
:102C0C000268136923F44053C1680B431361836852
:102C1C000269134342691A430168CB6823F4B05329
:102C2C0023F00C031343CB600268536923F4407305
:102C3C0081690B4353610268134B9A4220D0FFF712
:102C4C0023FC024602EB820202EB820263689B00C9
:102C5C00B2FBF3F20D48A0FB02314909642303FBDC
:102C6C0011231B013233A0FB03235B0903F0F00299
:102C7C0002EB011203F00F03216813448B6010BDAB
:102C8C00FFF712FC0246DDE7003801401F85EB51CF
:102C9C002DE9F84305460F4616469946DDF8208087
:102CAC002C68246837EA04030CBF4FF0010C4FF07A
:102CBC00000CB4451FD1B8F1FF3FF1D0B8F1000FB3
:102CCC0005D0FEF75DF9A0EB09004045E8D92A686C
:102CDC00D36823F4D073D3602A68536923F00103BB
:102CEC005361202385F83D3085F83E30002385F86C
:102CFC003C30032000E00020BDE8F88358B310B549
:102D0C00044690F83D300BB3242384F83D30226800
:102D1C00D36823F40053D3602046FFF76FFF22687B
:102D2C00136923F4904313612268536923F02A0337
:102D3C0053612268D36843F40053D36000202064AD
:102D4C00202384F83D3084F83E3010BD80F83C30B0
:102D5C00FEF730F8D8E7012070472DE9F04182B03A
:102D6C001E4690F83D30DBB2202B54D104460D4664
:102D7C009046002953D0002A53D090F83C30012BB8
:102D8C0051D0012380F83C3000230364212380F8C8
:102D9C003D30FEF7F5F80746A4F82480A4F8268009
:102DAC00A368B3F5805F05D04FF00008002384F8CA
:102DBC003C3012E0236913B14FF00008F6E7A84647
:102DCC000025F3E738F8023B2268C3F3080353608D
:102DDC00E28C92B2013A92B2E284E38C9BB273B170
:102DEC0000963B46002280212046FFF751FFE0B9B8
:102DFC00002DE7D015F8012B23685A60E8E7009600
:102E0C003B46002240212046FFF742FF78B92023A1
:102E1C0084F83D3000E0022002B0BDE8F0810120D2
:102E2C00FAE70120F8E70220F6E70320F4E7032095
:102E3C00F2E7704708B50168CA6822F04002CA6020
:102E4C00202280F83D20FFF7F4FF002008BD7047DA
:102E5C0008B5406A0023C385C384FFF7F8FF08BD9B
:102E6C00704790F83E30DBB2222B60D18368B3F50B
:102E7C00805F46D0826AB3F5805F04D0002B4DD1C1
:102E8C000369002B4AD103685B681370836A0133B2
:102E9C008362C38D9BB2013B9BB2C385002B48D18F
:102EAC0000B583B00268D36823F02003D3600268B6
:102EBC00D36823F48073D3600268536923F0010351
:102ECC005361202380F83E30036B012B2CD100235F
:102EDC0003630268D36823F01003D36003681A6895
:102EEC0012F0100F06D0002201921A6801925B6852
:102EFC000193019B818DFFF7B3FF002003B05DF8B8
:102F0C0004FB0269002AB5D1826A03685B68C3F3CB
:102F1C0008031380836A02338362BAE703685B6831
:102F2C0003F07F031370B1E7FDF716FCE5E7022011
:102F3C00704700207047000030B583B0044602682B
:102F4C001368D068516913F00F0505D113F0200FE9
:102F5C0002D010F0200F19D12DB111F0010119D1AF
:102F6C0010F4907F16D1216B012975D013F0800FCE
:102F7C0003D010F0800F40F0D78013F0400F03D037
:102F8C0010F0400F40F0D48003B030BD2046FFF766
:102F9C0068FFF9E713F0010F06D010F4807F03D01F
:102FAC00226C42F00102226413F0040F04D019B118
:102FBC00226C42F00202226413F0020F04D019B109
:102FCC00226C42F00402226413F0080F07D010F0B8
:102FDC00200F00D119B1226C42F008022264226C3D
:102FEC00002AD1D013F0200F02D010F0200F21D1E5
:102FFC0023685B6903F04003226C12F0080F00D1C8
:10300C0023B32046FFF7B0FD23685A6912F0400F36
:10301C0018D05A6922F040025A61A36B73B1464A28
:10302C005A63A06BFEF7FCFC0028ADD0A06B436B81
:10303C009847A9E72046FFF714FFD9E72046FFF78A
:10304C0006FFA1E72046FFF702FF9DE72046FFF7AA
:10305C00FEFE0023236497E713F0100F86D010F0C8
:10306C00100F83D0002301931368019353680193CD
:10307C00019B536913F0400F32D0A16B0B685B6856
:10308C009BB2002B80D0A08D98427FF67DAFE3855C
:10309C008B69202B08D1A18DE38D9BB2C91A89B203
:1030AC002046FFF7DDFE6FE7D36823F48073D3600F
:1030BC002268536923F0010353612268536923F09A
:1030CC0040035361202384F83E300023236322689D
:1030DC00D36823F01003D360A06BFEF77FFCDAE714
:1030EC00A18DE38D9BB2C91A89B2E38D9BB2002BE3
:1030FC003FF44AAF00293FF447AFD36823F49073F1
:10310C00D3602268536923F001035361202384F8B0
:10311C003E30002323632268D36823F01003D3606E
:10312C002046FFF79DFE2FE72046FFF736FD2BE7E5
:10313C002046FFF77FFE27E75D2E000890F83D3014
:10314C0090F83E0018437047034681628285C28521
:10315C0000201864222283F83E2083F83C00196872
:10316C00CA6842F48072CA6019684A6942F0010266
:10317C004A611A68D36843F02003D360704708B5DE
:10318C0090F83E30DBB2202B0DD171B17AB190F8B2
:10319C003C30012B0DD0012380F83C30002303631D
:1031AC00FFF7D2FF00E0022008BD0120FCE7012060
:1031BC00FAE70220F8E7000070B50D4E0D4D761BB6
:1031CC00B61006D0002455F8043B01349847A642AB
:1031DC00F9D1094E094D00F0D5F8761BB61006D082
:1031EC00002455F8043B01349847A642F9D170BD30
:1031FC0064360008643600086C3600086436000833
:10320C00830730B548D0541E002A3FD00346CAB2BB
:10321C0001E0013C3AD303F8012B9D07F9D1032CB3
:10322C002DD9CDB245EA05250F2C45EA054536D9F1
:10323C00A4F1100222F00F0C03F1200EE6444FEA29
:10324C00121C03F1100242E9045542E902551032F6
:10325C007245F8D10CF1010214F00C0F03EB0212C1
:10326C0004F00F0C13D0ACF1040323F0030304336C
:10327C00134442F8045B9342FBD10CF003042CB1D1
:10328C00CAB21C4403F8012B9C42FBD130BD6446EE
:10329C001346002CF4D1F9E703461446BFE71A464F
:1032AC00A446E0E7024B13B1024800F005B87047A2
:1032BC0000000000D1320008002301461A461846CF
:1032CC0000F01AB838B5084B084D5B1B9C1007D0A2
:1032DC00043B1D44013C55F804399847002CF9D1A6
:1032EC00BDE8384000F054B8703600086C36000861
:1032FC00704700BF704700BF2DE9F047DFF87CA096
:10330C000646DAF8000098460F469146FFF7F0FFA4
:10331C001B4B1B68D3F8484124B365681F2D26DC72
:10332C005EB96B1C0235DAF80000636044F8257056
:10333C00FFF7E0FF0020BDE8F087012304EB8501D7
:10334C00C1F88890D4F88821AB401A43022EC4F8F7
:10335C008821C1F80881E4D1D4F88C211343C4F836
:10336C008C31DEE703F5A674C3F84841D5E7DAF8EB
:10337C000000FFF7BFFF4FF0FF30DCE7E004002058
:10338C0060360008F8B500BFF8BC08BC9E46704714
:0C339C00F8B500BFF8BC08BC9E467047A6
:1033A800303132330D0A0000000000000000000038
:1033B8000000000044617461206F766572666C6F6E
:1033C800770000002A2A2A2A2A2A2A2A2A2A2A2A86
:1033D8002A2A0000202049204C6F76652059595927
:1033E8002020000058203D20000000000D0A0000A9
:1033F80059203D2000000000303132333435363753
:10340800383900000000000000000000002F000014
:1034180000000700070000147F147F1400242A7F8F
:103428002A1200626408132300364955225000000E
:103438000503000000001C224100000041221C007E
:103448000014083E08140008083E0808000000A000
:1034580060000008080808080000606000000020FC
:1034680010080402003E5149453E0000427F4000DA
:10347800004261514946002141454B310018141260
:103488007F10002745454539003C4A49493000012D
:103498007109050300364949493600064949291E7C
:1034A80000003636000000005636000000081422DE
:1034B80041000014141414140000412214080002DE
:1034C8000151090600324959513E007C1211127C03
:1034D800007F49494936003E41414122007F414130
:1034E800221C007F49494941007F09090901003E22
:1034F8004149497A007F0808087F0000417F410060
:10350800002040413F01007F08142241007F4040D5
:103518004040007F020C027F007F0408107F003EBD
:103528004141413E007F09090906003E4151215EA3
:10353800007F091929460046494949310001017FA0
:103548000101003F4040403F001F2040201F003F36
:103558004038403F006314081463000708700807E8
:1035680000615149454300007F41410000552A55FB
:103578002A55000041417F00000402010204004076
:103588004040404000000102040000205454547898
:10359800007F4844443800384444442000384444B8
:1035A800487F00385454541800087E090102001856
:1035B800A4A4A47C007F080404780000447D400093
:1035C800004080847D00007F102844000000417F77
:1035D8004000007C04180478007C08040478003853
:1035E80044444438007C08040408004854545420D7
:1035F80000043F444020003C4040207C00FC242440
:1036080024180018242418FC001C2040201C003C0E
:103618004030403C004428102844001CA0A0A07C56
:10362800004464544C44141414141414000000008E
:10363800000000000102030406070809000000005A
:103648000102030402030405060708090A0B0C0D0E
:0C3658000E0F101000000000B800002051
:08366400B13200083101000839
:04366C000D01000844
:103670002A2A2A2A2A2A2A2A2A2A2A2A2A2A2A2AAA
:103680002A2A2A2A2A2A2A2A2A2A2A2A202020568C
:1036900078203D20303030302020202020567920E6
:1036A0003D203030303020202A2A2A2A2A2A2A2A6D
:1036B0002A2A2A2A2A2A2A2A2A2A2A2A2A2A2A2A6A
:1036C0002A2A2A2A2A2A2A2A2A2A2A2A2A2A2A2A5A
:1036D0002A2A2A2A2A2A2A2A2A2A2A2A2A2A2A2A4A
:1036E000202049204C6F76652059595920202A2ADC
:1036F0002A2A2A2A2A2A2A2A2A2A2A2A2A2A2A2A2A
:103700002A2A2A2A2A2A2A2A2A2A2A2A2A2A2A2A19
:103710002A2A2A2A2A2A2A2A0024F4000100000040
:10372000100000000000000000000000A4030020C2
:103730000C040020740400200000000000000000C1
:103740000000000000000000000000000000000079
:103750000000000000000000000000000000000069
:103760000000000000000000000000000000000059
:103770000000000000000000000000000000000049
:103780000000000000000000000000000000000039
:103790000000000000000000000000000000000029
:1037A0000000000000000000000000000000000019
:1037B0000000000000000000000000000000000009
:1037C00000000000000000000000000000000000F9
:1037D00001000000000000000E33CDAB34126DE696
:1037E000ECDE05000B0000000000000000000000FF
:1037F00000000000000000000000000000000000C9
:1038000000000000000000000000000000000000B8
:1038100000000000000000000000000000000000A8
:103820000000000000000000000000000000000098
:043B5000AC0600209F
:0400000508000EB928
:00000001FF
